:020000001628C0
:0E0006008312031322088A00210882000800DA
:1000140003208A110A128000840AA10A0319A20A81
:08002400F003031D0A28080087
:10002C0083120313870186018316031789010313B7
:10003C00870186018312A001013086000430200262
:10004C00031847282008493EF00000300318013EF1
:10005C00F1007008A1007108A20003208A110A1295
:10006C0087000230FC004B30FD00FD0B3B28FC0BE5
:10007C003B280608F000F00D701070088600A00AEE
:06008C002428202848286A
:0800920076343F343834773432
:04400E00D4200007B3
:00000001FF
