:020000001628C0
:0E0006008312031321088A00200882000800DC
:1000140003208A110A128000840AA00A0319A10A83
:08002400F003031D0A28080087
:10002C00831203138701831687013F3083128700E5
:10003C000530FB000F30FC00F130FD00FD0B2428D7
:10004C00FC0B2428FB0B2428063087000530FB0012
:10005C000F30FC00F130FD00FD0B3228FC0B322878
:10006C00FB0B32285B3087000530FB000F30FC00A7
:10007C00F130FD00FD0B4028FC0B4028FB0B402809
:10008C004F3087000530FB000F30FC00F130FD00D5
:10009C00FD0B4E28FC0B4E28FB0B4E2866308700C0
:1000AC000530FB000F30FC00F130FD00FD0B5C282F
:1000BC00FC0B5C28FB0B5C286D3087000530FB00CB
:1000CC000F30FC00F130FD00FD0B6A28FC0B6A2898
:1000DC00FB0B6A287D3087000530FB000F30FC00DD
:1000EC00F130FD00FD0B7828FC0B7828FB0B7828F1
:1000FC00473087000530FB000F30FC00F130FD006D
:10010C00FD0B8628FC0B8628FB0B86287F3087008E
:10011C000530FB000F30FC00F130FD00FD0B942886
:10012C00FC0B9428FB0B9428673087000530FB00F0
:10013C000F30FC00F130FD00FD0BA228FC0BA228B7
:10014C00FB0BA22887010530FB000F30FC00F130BF
:10015C00FD00FD0BAF28FC0BAF28FB0BAF281B28B9
:02016C00B628B3
:04400E00F22F000786
:00000001FF
