:020000000328D3
:100006008316031387018312870121308700083086
:10001600FB009D30FC000530FD00FD0B1028FC0B9D
:100026001028FB0B1028000000000130870002306A
:10003600FB004530FC00A930FD00FD0B2028FC0B21
:100046002028FB0B2028000000002130870002300A
:10005600FB004530FC00A930FD00FD0B3028FC0BF1
:100066003028FB0B302800000000013087000230EA
:10007600FB004530FC00A930FD00FD0B4028FC0BC1
:100086004028FB0B4028000000002130870002308A
:10009600FB004530FC00A930FD00FD0B5028FC0B91
:1000A6005028FB0B5028000000000130870002306A
:1000B600FB004530FC00A930FD00FD0B6028FC0B61
:1000C6006028FB0B6028000000002130870002300A
:1000D600FB004530FC00A930FD00FD0B7028FC0B31
:1000E6007028FB0B702800000000013087001130DB
:1000F60087000630FB001330FC00AD30FD00FD0B21
:100106008228FC0B8228FB0B82280000000011309D
:1001160087000C3087000830FB009D30FC0005305E
:10012600FD00FD0B9428FC0B9428FB0B9428000083
:100136000000083087000230FB004530FC00A93083
:10014600FD00FD0BA428FC0BA428FB0BA428000033
:1001560000000C3087000230FB004530FC00A9305F
:10016600FD00FD0BB428FC0BB428FB0BB4280000E3
:100176000000083087000230FB004530FC00A93043
:10018600FD00FD0BC428FC0BC428FB0BC428000093
:1001960000000C3087000230FB004530FC00A9301F
:1001A600FD00FD0BD428FC0BD428FB0BD428000043
:1001B6000000083087000230FB004530FC00A93003
:1001C600FD00FD0BE428FC0BE428FB0BE4280000F3
:1001D60000000C3087000230FB004530FC00A930DF
:1001E600FD00FD0BF428FC0BF428FB0BF4280000A3
:1001F6000000083087000230FB004530FC00A930C3
:10020600FD00FD0B0429FC0B0429FB0B042900004F
:1002160000000C3087000A3087000630FB001330E0
:10022600FC00AD30FD00FD0B1629FC0B1629FB0B5F
:0E0236001629000000000A3087000828212940
:04400E00D4200007B3
:00000001FF
