:020000001628C0
:0E0006008312031321088A00200882000800DC
:1000140003208A110A128000840AA00A0319A10A83
:08002400F003031D0A28080087
:10002C008316031387018312A2012208093C031CC7
:10003C003E282208403EF00000300318013EF1003B
:10004C007008A0007108A10003208A110A12870011
:10005C000630FB001330FC00AD30FD00FD0B3428E6
:10006C00FC0B3428FB0B342800000000A20A1B28D0
:04007C0019283F28D8
:100080003F3406345B344F3466346D347D3407348A
:040090007F346F3416
:04400E00F22F000786
:00000001FF
