:020000004B298A
:0400060000000800EE
:10000A00103083120313FD00FD0B092800000800BD
:10001A00083083120313FC002330FD00FD0B132864
:06002A00FC0B1328080086
:1000300083120313BB1B1E2885111F2885153B1B2C
:100040002328051124280515BB1A282885102928DE
:1000500085143B1A2D2805102E280514291832283E
:10006000861433288610061403200610BB193A287C
:1000700085113B2885153B193F280511402805159A
:10008000BB1844288510452885143B1849280510BD
:100090004A28051429184E2886144F28861006145D
:1000A00003200610291C56280D205728052008007B
:0E00B000831203132E088A002D088200080018
:1000BE008312031329103A08BB00182029140800D4
:1000CE0083120313F801F9011030FC00710DF80DC5
:1000DE00F90D7408F8027508031C750FF902031860
:1000EE007F287408F80775080318750FF9070310B1
:0A00FE00F00DF10DFC0B6D28080059
:0E010800073083120313FD00FD0B882808004A
:1001160083120313B80105303802031899283808EA
:100126003707840020308000B80A8E283808370741
:1001360084008001B80338083707B9000A30F40094
:10014600F5013508F0003608F10067207808F00060
:100156007908F1003030F007390884007008800013
:100166000A30F400F5013508F0003608F100672082
:100176007008B5007108B60000307106031DC52869
:1001860000307006031DC828CA28B8039E28080038
:10019600DD28803083120313B500F028C030B50087
:1001A600F0289430B500F028D430B500F02880301F
:1001B600B500F028831203133508013A0319CC2839
:1001C6003508023A0319D1283508033A0319D42809
:1001D6003508043A0319D728DA283603F00035081B
:1001E600F0077008B5007008BB0018202910B80188
:1001F6003808370784000008031909293808370723
:1002060084000008BA005F20B80AFB2829140800F9
:10021600C330831203139F05C0309F003508F000DA
:10022600F00D7010F00D701070089F0483169F1764
:1002360083121F1484209F149F1C232900001F294A
:100246001F101E08F100F00183161E08F00400308E
:04025600F1040800A7
:10025A00FF3083120313AA00FF30AB00FF30AC005B
:10026A00FF30C3309F05C0309F0083169F1783124B
:04027A001F14080045
:10027E0058208A110A128000840AAD0A0319AE0AA8
:08028E00F003031D3F290800E5
:100296004C3083120313A0006530A1006330A20026
:1002A6007430A3007530A4007230A5006130A6003A
:1002B6003D30A700A8018316031789010130880085
:1002C6002D210C30BB0018200130BB001820013056
:1002D600B5000130B6002030B700CB200D30B50098
:1002E6000B2170088312B5007108B6002F30B700D5
:1002F6008B200130B5000A30B6002F30B700CB2076
:100306000230FB004530FC00A930FD00FD0B8929B9
:10031600FC0B8929FB0B8929000000007129922911
:04400E00F22F000786
:00000001FF
