:020000001628C0
:0E0006008312031321088A00200882000800DC
:1000140003208A110A128000840AA00A0319A10A83
:08002400F003031D0A28080087
:10002C0083160313870183128701923087000330F4
:10003C00FB008A30FC005530FD00FD0B2328FC0B27
:10004C002328FB0B232800000000C030870003305E
:10005C00FB008A30FC005530FD00FD0B3328FC0BF7
:10006C003328FB0B332800000000AB308700033033
:10007C00FB008A30FC005530FD00FD0B4328FC0BC7
:10008C004328FB0B432800000000AF3087000330EF
:10009C00FB008A30FC005530FD00FD0B5328FC0B97
:1000AC005328FB0B532800000000CF30870003308F
:1000BC00FB008A30FC005530FD00FD0B6328FC0B67
:1000CC006328FB0B63280000000086308700033098
:1000DC00FB008A30FC005530FD00FD0B7328FC0B37
:1000EC007328FB0B732800000000FF3087000330DF
:1000FC00FB008A30FC005530FD00FD0B8328FC0B07
:10010C008328FB0B8328000000008C308700033011
:10011C00FB008A30FC005530FD00FD0B9328FC0BD6
:10012C009328FB0B932800000000C030870003309D
:10013C00FB008A30FC005530FD00FD0BA328FC0BA6
:10014C00A328FB0BA32800000000AF30870003306E
:10015C00FB008A30FC005530FD00FD0BB328FC0B76
:10016C00B328FB0BB3280000000098308700033045
:10017C00FB008A30FC005530FD00FD0BC328FC0B46
:10018C00C328FB0BC32800000000C13087000330DC
:10019C00FB008A30FC005530FD00FD0BD328FC0B16
:1001AC00D328FB0BD32800000000863087000330D7
:1001BC00FB008A30FC005530FD00FD0BE328FC0BE6
:1001CC00E328FB0BE32800000000FF30870003301E
:1001DC00FB008A30FC005530FD00FD0BF328FC0BB6
:1001EC00F328FB0BF328000000009230870003304B
:1001FC00FB008A30FC005530FD00FD0B0329FC0B85
:10020C000329FB0B032900000000CF3087000330CB
:10021C00FB008A30FC005530FD00FD0B1329FC0B54
:10022C001329FB0B13290000000087010330FB008E
:10023C008A30FC005530FD00FD0B2229FC0B2229D5
:0C024C00FB0B2229000000001B282B29BE
:04400E00F22F000786
:00000001FF
