:020000000629CF
:10000600103083120313FD00FD0B072800000800C3
:10001600083083120313FC002330FD00FD0B11286A
:06002600FC0B112808008C
:04002C0000000800C8
:1000300083120313D01B1E2886131F288617501BFC
:100040002328061324280617D01A282886122928C0
:100050008616501A2D2806122E2806164818322801
:10006000861533288611061516200611D0193A2850
:1000700086133B28861750193F2806134028061779
:10008000D01844288612452886165018492806128A
:100090004A28061648184E2886154F288611061538
:1000A00016200611481C56280B205728032008004C
:1000B0008316031306118611061286120613861381
:1000C00083120611861186130613861206120B2060
:1000D0000B200B20861606160615162006110B207F
:1000E0000615162006110B200615162006110B20EA
:1000F00006120615162006110B20061516200611ED
:10010000861286170615162006110B208613061672
:1001100006151620061106120615162006110B20CC
:1001200006151620061106160615162006110B20B8
:1001300006120615162006118617061786160616CD
:0C0140000615162006110B2048140800BC
:0E014C00831203134A088A0049088200080043
:10015A008312031348104F08D000182048140800CF
:0A016A0058200130D00018200800D2
:10017400CC28803083120313CB00DF28C030CB009F
:10018400DF289430CB00DF28D430CB00DF28803048
:10019400CB00DF28831203134B08013A0319BB2851
:1001A4004B08023A0319C0284B08033A0319C32821
:1001B4004B08043A0319C628C9284C03F0004B081D
:1001C400F0077008CB007008D00018204810CE014A
:1001D4004E084D07840000080319F8284E084D07FF
:1001E40084000008CF00AD20CE0AEA284814080095
:1001F400A6208A110A128000840AC90A0319CA0AAD
:08020400F003031DFA280800B5
:10020C008221B5200130CB000330CC003D30CD0035
:10021C00BA200230CB000330CC002A30CD00BA20FB
:10022C000D30FB00AF30FC00B630FD00FD0B1C297F
:10023C00FC0B1C29FB0B1C2900000130D0001820E2
:10024C000C30D00018200130CB000130CC00203015
:10025C00CD00BA200230CB000130CC003330CD00C1
:10026C00BA207C30CF00AD200D30FB00AF30FC004D
:10027C00B630FD00FD0B4029FC0B4029FB0B40293F
:10028C0000000130D00018200F30D0001820292990
:02029C004E29E9
:1003040020308400283083120313F0005430C900D5
:080314000130CA00FA200800C4
:1002A80061347034723465346E34643465342034A7
:0402B8006134003479
:1002BC0041344C34203443345534523453344F3459
:0202CC000034FC
:1002CE0075347334613472346D3465342E342E3497
:0402DE002E34003486
:1002E2004234493445344E34563445344E3449341C
:0602F20044344F340034D7
:0C02F8006234693465346E342134003403
:04400E00D4200007B3
:00000001FF
