:02000000AB292A
:0400060000000800EE
:10000A00103083120313FD00FD0B092800000800BD
:10001A00083083120313FC002330FD00FD0B132864
:06002A00FC0B1328080086
:1000300083120313C91B1E2886131F288617491B0A
:100040002328061324280617C91A282886122928C7
:100050008616491A2D2806122E2806163D18322813
:10006000861433288610061403200610C9193A286E
:1000700086133B28861749193F2806134028061780
:10008000C918442886124528861649184928061298
:100090004A2806163D184E2886144F288610061446
:1000A000032006103D1C56280D2057280520080067
:0E00B0008312031339088A0038088200080002
:0E00BE00073083120313FD00FD0B63280800BA
:1000CC0083120313F801F9011030FC00710DF80DC7
:1000DC00F90D7408F8027508031C750FF902031862
:1000EC007E287408F80775080318750FF9070310B4
:0A00FC00F00DF10DFC0B6C2808005C
:10010600831203133D104808C90018203D14080047
:10011600C330831203139F05C0309F004308F000CD
:10012600F00D7010F00D701070089F0483169F1765
:1001360083121F145F209F149F1CA32800009F2872
:100146001F101E08F100F00183161E08F00400308F
:04015600F1040800A8
:10015A00BF28803083120313C300D228C030C300E3
:10016A00D2289430C300D228D430C300D228803099
:10017A00C300D228831203134308013A0319AE2895
:10018A004308023A0319B3284308033A0319B62865
:10019A004308043A0319B928BC284403F000430869
:1001AA00F0077008C3007008C90018203D10C60186
:1001BA0046084507840000080319EB284608450746
:1001CA0084000008C8008320C60ADD283D14080000
:1001DA0083120313C4014408430784000008031967
:1001EA00FE284408430784000008C8008320C40A84
:0401FA00F0280800E1
:1001FE0083120313C6010530460203180D29460863
:10020E004507840020308000C60A022946084507AB
:10021E0084008001C60346084507C7000A30F40073
:10022E00F5014308F0004408F10066207808F0005C
:10023E007908F1003030F00747088400700880001C
:10024E000A30F400F5014308F0004408F10066207E
:10025E007008C3007108C40000307106031D3929EF
:10026E0000307006031D3C293E29C60312290800E2
:10027E0083160313061086100612861206138613B3
:10028E0083120610861086130613861206120D2090
:10029E000D200D20861606160614032006100D20BE
:1002AE000614032006100D200614032006100D2040
:1002BE0006120614032006100D2006140320061045
:1002CE00861286170614032006100D2086130616B6
:1002DE0006140320061006120614032006100D2025
:1002EE0006140320061006160614032006100D2011
:1002FE000612061403200610861706178616061613
:0C030E000614032006100D203D1408000A
:10031A0058208A110A128000840AB80A0319B90AF5
:08032A00F003031D8D290800FA
:10033200FF3083120313BA00FF30BB00FF30BC0052
:10034200FF30C3309F05C0309F0083169F17831272
:040352001F1408006C
:10035600433083120313A0004F30A1004C30A2009B
:100366004430A3002030A400A5014830A6004F3039
:10037600A7005430A800A9014330AA00AB015430AD
:10038600AC006530AD006D30AE007030AF0065304A
:10039600B0007230B1006130B2007430B300753015
:1003A600B4007230B5006130B600B701831603178A
:1003B60088018330890099213F210C30C90018201B
:1003C6000130C90018200130C3000330C4002C30AE
:1003D600C500AD20C3018B207008F2007108F30040
:1003E600F30CF20CF31372088312BE007308BF00FD
:1003F6007208C3007308C4004208C500FF2002301B
:10040600C3000530C4004208C500AD202A30C30031
:10041600ED2041083F02031D122A40083E02031C3C
:100426001C2A0130C3000830C4002630C500AD20A8
:10043600232A0130C3000330C4002030C500AD209C
:100446000230FB004530FC00A930FD00FD0B292AD7
:10045600FC0B292AFB0B292A00000000ED29322A71
:04400E00F22F000786
:00000001FF
