:020000001628C0
:0E0006008312031321088A00200882000800DC
:1000140003208A110A128000840AA00A0319A10A83
:08002400F003031D0A28080087
:10002C0083120313A3010330230203185928A401DC
:10003C002408963C031C5728A2010130860004308A
:10004C002202031855282308F000F101F00DF10DE0
:10005C007010F00DF10D70105B30F00700300318CC
:10006C00013EF1072208F0070318F10A7008A000FE
:10007C007108A10003208A110A1287000430FC00C9
:10008C00E430FD00FD0B4828FC0B48280000060856
:10009C00F000F00D701070088600A20A2528A40A42
:0A00AC001E28A30A192816285A2856
:1000B60076343F34383477343E343F343934773409
:0800C6007834503479346D34B4
:04400E00F22F000786
:00000001FF
