:020000001628C0
:0E0006008312031321088A00200882000800DC
:1000140003208A110A128000840AA00A0319A10A83
:08002400F003031D0A28080087
:10002C008316031387018312870107148230FC00A7
:10003C00DD30FD00FD0B2028FC0B2028000000000B
:10004C0007108230FC00DD30FD00FD0B2B28FC0B73
:10005C002B280000000007148230FC00DD30FD006E
:10006C00FD0B3628FC0B36280000000007108230F0
:10007C00FC00DD30FD00FD0B4128FC0B412800008D
:10008C00000007148230FC00DD30FD00FD0B4C2815
:10009C00FC0B4C280000000007108230FC00DD3007
:1000AC00FD00FD0B5728FC0B57280000000007141F
:1000BC008230FC00DD30FD00FD0B6228FC0B622859
:1000CC0000000000071087142430FB008330FC0074
:1000DC00CF30FD00FD0B7028FC0B7028FB0B70283B
:0600EC0087101B28782894
:04400E00D4200007B3
:00000001FF
