:020000001628C0
:0E0006008312031321088A00200882000800DC
:1000140003208A110A128000840AA00A0319A10A83
:08002400F003031D0A28080087
:10002C008316031387018601031789018801831244
:10003C000313850186018316850183120508003A96
:10004C00031D292886010508013A031D2F28883035
:10005C0086000508023A031D352883308600050802
:10006C00033A031D3B28C63086000508043A031DDD
:10007C004128A13086000508053A031D4728863023
:10008C0086000508063A031D4D288E3086000508AB
:0E009C00073A031D532882308600232854287B
:04400E00F22F000786
:00000001FF
